{
  "_format": "hh-sol-artifact-1",
  "contractName": "Voting",
  "sourceName": "contracts/Voting.sol",
  "abi": [
    {
      "inputs": [
        {
          "internalType": "uint256",
          "name": "_endingVotationTime",
          "type": "uint256"
        }
      ],
      "stateMutability": "nonpayable",
      "type": "constructor"
    },
    {
      "anonymous": false,
      "inputs": [
        {
          "indexed": false,
          "internalType": "string",
          "name": "firstCandidate",
          "type": "string"
        },
        {
          "indexed": false,
          "internalType": "uint256",
          "name": "finalVoteFirst",
          "type": "uint256"
        },
        {
          "indexed": false,
          "internalType": "string",
          "name": "secondCandidate",
          "type": "string"
        },
        {
          "indexed": false,
          "internalType": "uint256",
          "name": "finalVoteSecond",
          "type": "uint256"
        },
        {
          "indexed": false,
          "internalType": "string",
          "name": "thirdCandidate",
          "type": "string"
        },
        {
          "indexed": false,
          "internalType": "uint256",
          "name": "finalVoteThird",
          "type": "uint256"
        }
      ],
      "name": "FinalResult",
      "type": "event"
    },
    {
      "anonymous": false,
      "inputs": [
        {
          "indexed": true,
          "internalType": "address",
          "name": "previousOwner",
          "type": "address"
        },
        {
          "indexed": true,
          "internalType": "address",
          "name": "newOwner",
          "type": "address"
        }
      ],
      "name": "OwnershipTransferred",
      "type": "event"
    },
    {
      "inputs": [],
      "name": "getVotingInfoContract",
      "outputs": [
        {
          "internalType": "address",
          "name": "",
          "type": "address"
        }
      ],
      "stateMutability": "view",
      "type": "function"
    },
    {
      "inputs": [],
      "name": "getVotingResult",
      "outputs": [],
      "stateMutability": "nonpayable",
      "type": "function"
    },
    {
      "inputs": [],
      "name": "getVotingTokenContract",
      "outputs": [
        {
          "internalType": "address",
          "name": "",
          "type": "address"
        }
      ],
      "stateMutability": "view",
      "type": "function"
    },
    {
      "inputs": [
        {
          "internalType": "address",
          "name": "_votingInfoContract",
          "type": "address"
        }
      ],
      "name": "initVotingInfoContract",
      "outputs": [],
      "stateMutability": "nonpayable",
      "type": "function"
    },
    {
      "inputs": [
        {
          "internalType": "address",
          "name": "_votingTokenAddress",
          "type": "address"
        }
      ],
      "name": "initVotingTokenContract",
      "outputs": [],
      "stateMutability": "nonpayable",
      "type": "function"
    },
    {
      "inputs": [],
      "name": "owner",
      "outputs": [
        {
          "internalType": "address",
          "name": "",
          "type": "address"
        }
      ],
      "stateMutability": "view",
      "type": "function"
    },
    {
      "inputs": [],
      "name": "presidentBidenStats",
      "outputs": [
        {
          "internalType": "uint256",
          "name": "",
          "type": "uint256"
        }
      ],
      "stateMutability": "view",
      "type": "function"
    },
    {
      "inputs": [],
      "name": "presidentObamaStats",
      "outputs": [
        {
          "internalType": "uint256",
          "name": "",
          "type": "uint256"
        }
      ],
      "stateMutability": "view",
      "type": "function"
    },
    {
      "inputs": [],
      "name": "presidentTrumpStats",
      "outputs": [
        {
          "internalType": "uint256",
          "name": "",
          "type": "uint256"
        }
      ],
      "stateMutability": "view",
      "type": "function"
    },
    {
      "inputs": [],
      "name": "renounceOwnership",
      "outputs": [],
      "stateMutability": "nonpayable",
      "type": "function"
    },
    {
      "inputs": [
        {
          "internalType": "address",
          "name": "newOwner",
          "type": "address"
        }
      ],
      "name": "transferOwnership",
      "outputs": [],
      "stateMutability": "nonpayable",
      "type": "function"
    },
    {
      "inputs": [],
      "name": "votingBiden",
      "outputs": [],
      "stateMutability": "nonpayable",
      "type": "function"
    },
    {
      "inputs": [],
      "name": "votingObama",
      "outputs": [],
      "stateMutability": "nonpayable",
      "type": "function"
    },
    {
      "inputs": [],
      "name": "votingTrump",
      "outputs": [],
      "stateMutability": "nonpayable",
      "type": "function"
    },
    {
      "inputs": [],
      "name": "withdraw",
      "outputs": [],
      "stateMutability": "nonpayable",
      "type": "function"
    }
  ],
  "bytecode": "0x60806040523480156200001157600080fd5b506040516200264d3803806200264d833981810160405281019062000037919062000148565b620000576200004b6200006560201b60201c565b6200006d60201b60201c565b806003819055505062000198565b600033905090565b60008060009054906101000a900473ffffffffffffffffffffffffffffffffffffffff169050816000806101000a81548173ffffffffffffffffffffffffffffffffffffffff021916908373ffffffffffffffffffffffffffffffffffffffff1602179055508173ffffffffffffffffffffffffffffffffffffffff168173ffffffffffffffffffffffffffffffffffffffff167f8be0079c531659141344cd1fd0a4f28419497f9722a3daafe3b4186f6b6457e060405160405180910390a35050565b60008151905062000142816200017e565b92915050565b6000602082840312156200015b57600080fd5b60006200016b8482850162000131565b91505092915050565b6000819050919050565b620001898162000174565b81146200019557600080fd5b50565b6124a580620001a86000396000f3fe608060405234801561001057600080fd5b50600436106100f55760003560e01c8063761559fb11610097578063a843148711610066578063a8431487146101de578063b1545ab9146101e8578063d520203d14610206578063f2fde38b14610222576100f5565b8063761559fb1461016657806387b29067146101845780638da5cb5b146101a25780639213b56e146101c0576100f5565b8063661e58c5116100d3578063661e58c51461012a578063671d2b7514610134578063715018a61461013e578063742373a914610148576100f5565b80631a5ea3e1146100fa5780631db6f940146101045780633ccfd60b14610120575b600080fd5b61010261023e565b005b61011e60048036038101906101199190611caa565b6106ad565b005b6101286106f9565b005b610132610b1d565b005b61013c610f8d565b005b6101466111a1565b005b6101506111b5565b60405161015d9190611efc565b60405180910390f35b61016e6111df565b60405161017b9190612110565b60405180910390f35b61018c61126a565b6040516101999190611efc565b60405180910390f35b6101aa611294565b6040516101b79190611efc565b60405180910390f35b6101c86112bd565b6040516101d59190612110565b60405180910390f35b6101e6611349565b005b6101f06117b8565b6040516101fd9190612110565b60405180910390f35b610220600480360381019061021b9190611caa565b611843565b005b61023c60048036038101906102379190611caa565b611a88565b005b6000600160009054906101000a900473ffffffffffffffffffffffffffffffffffffffff1673ffffffffffffffffffffffffffffffffffffffff166370a08231336040518263ffffffff1660e01b815260040161029b9190611efc565b60206040518083038186803b1580156102b357600080fd5b505afa1580156102c7573d6000803e3d6000fd5b505050506040513d601f19601f820116820180604052508101906102eb9190611d25565b1161032b576040517f08c379a000000000000000000000000000000000000000000000000000000000815260040161032290611fe0565b60405180910390fd5b610333611294565b73ffffffffffffffffffffffffffffffffffffffff163373ffffffffffffffffffffffffffffffffffffffff1614156103a1576040517f08c379a000000000000000000000000000000000000000000000000000000000815260040161039890611fc0565b60405180910390fd5b600160009054906101000a900473ffffffffffffffffffffffffffffffffffffffff1673ffffffffffffffffffffffffffffffffffffffff16638da5cb5b6040518163ffffffff1660e01b815260040160206040518083038186803b15801561040957600080fd5b505afa15801561041d573d6000803e3d6000fd5b505050506040513d601f19601f820116820180604052508101906104419190611cd3565b73ffffffffffffffffffffffffffffffffffffffff163373ffffffffffffffffffffffffffffffffffffffff1614156104af576040517f08c379a00000000000000000000000000000000000000000000000000000000081526004016104a690611fc0565b60405180910390fd5b60035442106104f3576040517f08c379a00000000000000000000000000000000000000000000000000000000081526004016104ea906120f0565b60405180910390fd5b600260009054906101000a900473ffffffffffffffffffffffffffffffffffffffff1673ffffffffffffffffffffffffffffffffffffffff1663298ccaac336040518263ffffffff1660e01b815260040161054e9190611efc565b600060405180830381600087803b15801561056857600080fd5b505af115801561057c573d6000803e3d6000fd5b50505050600160009054906101000a900473ffffffffffffffffffffffffffffffffffffffff1673ffffffffffffffffffffffffffffffffffffffff16639dc29fac3360016040518363ffffffff1660e01b81526004016105de929190611f4e565b600060405180830381600087803b1580156105f857600080fd5b505af115801561060c573d6000803e3d6000fd5b5050505060016004600060028081111561064f577f4e487b7100000000000000000000000000000000000000000000000000000000600052602160045260246000fd5b6002811115610687577f4e487b7100000000000000000000000000000000000000000000000000000000600052602160045260246000fd5b815260200190815260200160002060008282546106a4919061213c565b92505081905550565b6106b5611b0c565b80600260006101000a81548173ffffffffffffffffffffffffffffffffffffffff021916908373ffffffffffffffffffffffffffffffffffffffff16021790555050565b60001515600260009054906101000a900473ffffffffffffffffffffffffffffffffffffffff1673ffffffffffffffffffffffffffffffffffffffff166355448db1336040518263ffffffff1660e01b81526004016107589190611efc565b60206040518083038186803b15801561077057600080fd5b505afa158015610784573d6000803e3d6000fd5b505050506040513d601f19601f820116820180604052508101906107a89190611cfc565b1515146107ea576040517f08c379a00000000000000000000000000000000000000000000000000000000081526004016107e190612040565b60405180910390fd5b600160009054906101000a900473ffffffffffffffffffffffffffffffffffffffff1673ffffffffffffffffffffffffffffffffffffffff16638da5cb5b6040518163ffffffff1660e01b815260040160206040518083038186803b15801561085257600080fd5b505afa158015610866573d6000803e3d6000fd5b505050506040513d601f19601f8201168201806040525081019061088a9190611cd3565b73ffffffffffffffffffffffffffffffffffffffff163373ffffffffffffffffffffffffffffffffffffffff1614156108f8576040517f08c379a00000000000000000000000000000000000000000000000000000000081526004016108ef906120d0565b60405180910390fd5b600354421061093c576040517f08c379a0000000000000000000000000000000000000000000000000000000008152600401610933906120f0565b60405180910390fd5b600260009054906101000a900473ffffffffffffffffffffffffffffffffffffffff1673ffffffffffffffffffffffffffffffffffffffff1663762d648f336040518263ffffffff1660e01b81526004016109979190611efc565b600060405180830381600087803b1580156109b157600080fd5b505af11580156109c5573d6000803e3d6000fd5b50505050600160009054906101000a900473ffffffffffffffffffffffffffffffffffffffff1673ffffffffffffffffffffffffffffffffffffffff166323b872dd600160009054906101000a900473ffffffffffffffffffffffffffffffffffffffff1673ffffffffffffffffffffffffffffffffffffffff16638da5cb5b6040518163ffffffff1660e01b815260040160206040518083038186803b158015610a6f57600080fd5b505afa158015610a83573d6000803e3d6000fd5b505050506040513d601f19601f82011682018060405250810190610aa79190611cd3565b3360016040518463ffffffff1660e01b8152600401610ac893929190611f17565b602060405180830381600087803b158015610ae257600080fd5b505af1158015610af6573d6000803e3d6000fd5b505050506040513d601f19601f82011682018060405250810190610b1a9190611cfc565b50565b6000600160009054906101000a900473ffffffffffffffffffffffffffffffffffffffff1673ffffffffffffffffffffffffffffffffffffffff166370a08231336040518263ffffffff1660e01b8152600401610b7a9190611efc565b60206040518083038186803b158015610b9257600080fd5b505afa158015610ba6573d6000803e3d6000fd5b505050506040513d601f19601f82011682018060405250810190610bca9190611d25565b11610c0a576040517f08c379a0000000000000000000000000000000000000000000000000000000008152600401610c0190611fe0565b60405180910390fd5b610c12611294565b73ffffffffffffffffffffffffffffffffffffffff163373ffffffffffffffffffffffffffffffffffffffff161415610c80576040517f08c379a0000000000000000000000000000000000000000000000000000000008152600401610c7790611fc0565b60405180910390fd5b600160009054906101000a900473ffffffffffffffffffffffffffffffffffffffff1673ffffffffffffffffffffffffffffffffffffffff16638da5cb5b6040518163ffffffff1660e01b815260040160206040518083038186803b158015610ce857600080fd5b505afa158015610cfc573d6000803e3d6000fd5b505050506040513d601f19601f82011682018060405250810190610d209190611cd3565b73ffffffffffffffffffffffffffffffffffffffff163373ffffffffffffffffffffffffffffffffffffffff161415610d8e576040517f08c379a0000000000000000000000000000000000000000000000000000000008152600401610d8590611fc0565b60405180910390fd5b6003544210610dd2576040517f08c379a0000000000000000000000000000000000000000000000000000000008152600401610dc9906120f0565b60405180910390fd5b600260009054906101000a900473ffffffffffffffffffffffffffffffffffffffff1673ffffffffffffffffffffffffffffffffffffffff1663298ccaac336040518263ffffffff1660e01b8152600401610e2d9190611efc565b600060405180830381600087803b158015610e4757600080fd5b505af1158015610e5b573d6000803e3d6000fd5b50505050600160009054906101000a900473ffffffffffffffffffffffffffffffffffffffff1673ffffffffffffffffffffffffffffffffffffffff16639dc29fac3360016040518363ffffffff1660e01b8152600401610ebd929190611f4e565b600060405180830381600087803b158015610ed757600080fd5b505af1158015610eeb573d6000803e3d6000fd5b5050505060016004600060016002811115610f2f577f4e487b7100000000000000000000000000000000000000000000000000000000600052602160045260246000fd5b6002811115610f67577f4e487b7100000000000000000000000000000000000000000000000000000000600052602160045260246000fd5b81526020019081526020016000206000828254610f84919061213c565b92505081905550565b610f95611b0c565b600354421015610fda576040517f08c379a0000000000000000000000000000000000000000000000000000000008152600401610fd190612000565b60405180910390fd5b7f7e4988f2ea2e6178142fe9a974083ded86392a769d6a24662f2302c691f3aac060046000806002811115611038577f4e487b7100000000000000000000000000000000000000000000000000000000600052602160045260246000fd5b6002811115611070577f4e487b7100000000000000000000000000000000000000000000000000000000600052602160045260246000fd5b81526020019081526020016000205460046000600160028111156110bd577f4e487b7100000000000000000000000000000000000000000000000000000000600052602160045260246000fd5b60028111156110f5577f4e487b7100000000000000000000000000000000000000000000000000000000600052602160045260246000fd5b81526020019081526020016000205460046000600280811115611141577f4e487b7100000000000000000000000000000000000000000000000000000000600052602160045260246000fd5b6002811115611179577f4e487b7100000000000000000000000000000000000000000000000000000000600052602160045260246000fd5b81526020019081526020016000205460405161119793929190612060565b60405180910390a1565b6111a9611b0c565b6111b36000611b8a565b565b6000600260009054906101000a900473ffffffffffffffffffffffffffffffffffffffff16905090565b60006004600060028081111561121e577f4e487b7100000000000000000000000000000000000000000000000000000000600052602160045260246000fd5b6002811115611256577f4e487b7100000000000000000000000000000000000000000000000000000000600052602160045260246000fd5b815260200190815260200160002054905090565b6000600160009054906101000a900473ffffffffffffffffffffffffffffffffffffffff16905090565b60008060009054906101000a900473ffffffffffffffffffffffffffffffffffffffff16905090565b600060046000600160028111156112fd577f4e487b7100000000000000000000000000000000000000000000000000000000600052602160045260246000fd5b6002811115611335577f4e487b7100000000000000000000000000000000000000000000000000000000600052602160045260246000fd5b815260200190815260200160002054905090565b6000600160009054906101000a900473ffffffffffffffffffffffffffffffffffffffff1673ffffffffffffffffffffffffffffffffffffffff166370a08231336040518263ffffffff1660e01b81526004016113a69190611efc565b60206040518083038186803b1580156113be57600080fd5b505afa1580156113d2573d6000803e3d6000fd5b505050506040513d601f19601f820116820180604052508101906113f69190611d25565b11611436576040517f08c379a000000000000000000000000000000000000000000000000000000000815260040161142d90611fe0565b60405180910390fd5b61143e611294565b73ffffffffffffffffffffffffffffffffffffffff163373ffffffffffffffffffffffffffffffffffffffff1614156114ac576040517f08c379a00000000000000000000000000000000000000000000000000000000081526004016114a390611fc0565b60405180910390fd5b600160009054906101000a900473ffffffffffffffffffffffffffffffffffffffff1673ffffffffffffffffffffffffffffffffffffffff16638da5cb5b6040518163ffffffff1660e01b815260040160206040518083038186803b15801561151457600080fd5b505afa158015611528573d6000803e3d6000fd5b505050506040513d601f19601f8201168201806040525081019061154c9190611cd3565b73ffffffffffffffffffffffffffffffffffffffff163373ffffffffffffffffffffffffffffffffffffffff1614156115ba576040517f08c379a00000000000000000000000000000000000000000000000000000000081526004016115b190611fc0565b60405180910390fd5b60035442106115fe576040517f08c379a00000000000000000000000000000000000000000000000000000000081526004016115f5906120f0565b60405180910390fd5b600260009054906101000a900473ffffffffffffffffffffffffffffffffffffffff1673ffffffffffffffffffffffffffffffffffffffff1663298ccaac336040518263ffffffff1660e01b81526004016116599190611efc565b600060405180830381600087803b15801561167357600080fd5b505af1158015611687573d6000803e3d6000fd5b50505050600160009054906101000a900473ffffffffffffffffffffffffffffffffffffffff1673ffffffffffffffffffffffffffffffffffffffff16639dc29fac3360016040518363ffffffff1660e01b81526004016116e9929190611f4e565b600060405180830381600087803b15801561170357600080fd5b505af1158015611717573d6000803e3d6000fd5b5050505060016004600080600281111561175a577f4e487b7100000000000000000000000000000000000000000000000000000000600052602160045260246000fd5b6002811115611792577f4e487b7100000000000000000000000000000000000000000000000000000000600052602160045260246000fd5b815260200190815260200160002060008282546117af919061213c565b92505081905550565b6000600460008060028111156117f7577f4e487b7100000000000000000000000000000000000000000000000000000000600052602160045260246000fd5b600281111561182f577f4e487b7100000000000000000000000000000000000000000000000000000000600052602160045260246000fd5b815260200190815260200160002054905090565b61184b611b0c565b80600160006101000a81548173ffffffffffffffffffffffffffffffffffffffff021916908373ffffffffffffffffffffffffffffffffffffffff160217905550600160009054906101000a900473ffffffffffffffffffffffffffffffffffffffff1673ffffffffffffffffffffffffffffffffffffffff16633950935130600160009054906101000a900473ffffffffffffffffffffffffffffffffffffffff1673ffffffffffffffffffffffffffffffffffffffff166370a08231600160009054906101000a900473ffffffffffffffffffffffffffffffffffffffff1673ffffffffffffffffffffffffffffffffffffffff16638da5cb5b6040518163ffffffff1660e01b815260040160206040518083038186803b15801561197157600080fd5b505afa158015611985573d6000803e3d6000fd5b505050506040513d601f19601f820116820180604052508101906119a99190611cd3565b6040518263ffffffff1660e01b81526004016119c59190611efc565b60206040518083038186803b1580156119dd57600080fd5b505afa1580156119f1573d6000803e3d6000fd5b505050506040513d601f19601f82011682018060405250810190611a159190611d25565b6040518363ffffffff1660e01b8152600401611a32929190611f77565b602060405180830381600087803b158015611a4c57600080fd5b505af1158015611a60573d6000803e3d6000fd5b505050506040513d601f19601f82011682018060405250810190611a849190611cfc565b5050565b611a90611b0c565b600073ffffffffffffffffffffffffffffffffffffffff168173ffffffffffffffffffffffffffffffffffffffff161415611b00576040517f08c379a0000000000000000000000000000000000000000000000000000000008152600401611af790611fa0565b60405180910390fd5b611b0981611b8a565b50565b611b14611c4e565b73ffffffffffffffffffffffffffffffffffffffff16611b32611294565b73ffffffffffffffffffffffffffffffffffffffff1614611b88576040517f08c379a0000000000000000000000000000000000000000000000000000000008152600401611b7f90612020565b60405180910390fd5b565b60008060009054906101000a900473ffffffffffffffffffffffffffffffffffffffff169050816000806101000a81548173ffffffffffffffffffffffffffffffffffffffff021916908373ffffffffffffffffffffffffffffffffffffffff1602179055508173ffffffffffffffffffffffffffffffffffffffff168173ffffffffffffffffffffffffffffffffffffffff167f8be0079c531659141344cd1fd0a4f28419497f9722a3daafe3b4186f6b6457e060405160405180910390a35050565b600033905090565b600081359050611c658161242a565b92915050565b600081519050611c7a8161242a565b92915050565b600081519050611c8f81612441565b92915050565b600081519050611ca481612458565b92915050565b600060208284031215611cbc57600080fd5b6000611cca84828501611c56565b91505092915050565b600060208284031215611ce557600080fd5b6000611cf384828501611c6b565b91505092915050565b600060208284031215611d0e57600080fd5b6000611d1c84828501611c80565b91505092915050565b600060208284031215611d3757600080fd5b6000611d4584828501611c95565b91505092915050565b611d5781612192565b82525050565b611d66816121da565b82525050565b6000611d7960268361212b565b9150611d848261221b565b604082019050919050565b6000611d9c60128361212b565b9150611da78261226a565b602082019050919050565b6000611dbf60148361212b565b9150611dca82612293565b602082019050919050565b6000611de2601a8361212b565b9150611ded826122bc565b602082019050919050565b6000611e0560218361212b565b9150611e10826122e5565b604082019050919050565b6000611e2860208361212b565b9150611e3382612334565b602082019050919050565b6000611e4b60138361212b565b9150611e568261235d565b602082019050919050565b6000611e6e60148361212b565b9150611e7982612386565b602082019050919050565b6000611e9160148361212b565b9150611e9c826123af565b602082019050919050565b6000611eb460168361212b565b9150611ebf826123d8565b602082019050919050565b6000611ed760108361212b565b9150611ee282612401565b602082019050919050565b611ef6816121d0565b82525050565b6000602082019050611f116000830184611d4e565b92915050565b6000606082019050611f2c6000830186611d4e565b611f396020830185611d4e565b611f466040830184611d5d565b949350505050565b6000604082019050611f636000830185611d4e565b611f706020830184611d5d565b9392505050565b6000604082019050611f8c6000830185611d4e565b611f996020830184611eed565b9392505050565b60006020820190508181036000830152611fb981611d6c565b9050919050565b60006020820190508181036000830152611fd981611d8f565b9050919050565b60006020820190508181036000830152611ff981611dd5565b9050919050565b6000602082019050818103600083015261201981611df8565b9050919050565b6000602082019050818103600083015261203981611e1b565b9050919050565b6000602082019050818103600083015261205981611e3e565b9050919050565b600060c082019050818103600083015261207981611e84565b90506120886020830186611eed565b818103604083015261209981611e61565b90506120a86060830185611eed565b81810360808301526120b981611db2565b90506120c860a0830184611eed565b949350505050565b600060208201905081810360008301526120e981611ea7565b9050919050565b6000602082019050818103600083015261210981611eca565b9050919050565b60006020820190506121256000830184611eed565b92915050565b600082825260208201905092915050565b6000612147826121d0565b9150612152836121d0565b9250827fffffffffffffffffffffffffffffffffffffffffffffffffffffffffffffffff03821115612187576121866121ec565b5b828201905092915050565b600061219d826121b0565b9050919050565b60008115159050919050565b600073ffffffffffffffffffffffffffffffffffffffff82169050919050565b6000819050919050565b60006121e5826121d0565b9050919050565b7f4e487b7100000000000000000000000000000000000000000000000000000000600052601160045260246000fd5b7f4f776e61626c653a206e6577206f776e657220697320746865207a65726f206160008201527f6464726573730000000000000000000000000000000000000000000000000000602082015250565b7f41646d696e2063616e6e6f7420766f7465210000000000000000000000000000600082015250565b7f426964656e27732046696e616c20436f756e7420000000000000000000000000600082015250565b7f446f6e2774206861766520746f6b656e7320746f20766f746521000000000000600082015250565b7f46696e616c20436f756e74206973206e6f7420617661696c61626c652079657460008201527f2100000000000000000000000000000000000000000000000000000000000000602082015250565b7f4f776e61626c653a2063616c6c6572206973206e6f7420746865206f776e6572600082015250565b7f416c726561647920576974686472617765642100000000000000000000000000600082015250565b7f5472756d7027732046696e616c20436f756e7420000000000000000000000000600082015250565b7f4f62616d6127732046696e616c20436f756e7420000000000000000000000000600082015250565b7f41646d696e3a2063616e27742077697468647261772100000000000000000000600082015250565b7f566f746174696f6e20456e64696e672100000000000000000000000000000000600082015250565b61243381612192565b811461243e57600080fd5b50565b61244a816121a4565b811461245557600080fd5b50565b612461816121d0565b811461246c57600080fd5b5056fea2646970667358221220ac19d88a478391e15cb511e80b98235f5d962c766843166254e37fea747c831a64736f6c63430008040033",
  "linkReferences": {},
  "deployedLinkReferences": {}
}