{
  "_format": "hh-sol-artifact-1",
  "contractName": "VotingToken",
  "sourceName": "contracts/VotingToken.sol",
  "abi": [
    {
      "inputs": [
        {
          "internalType": "string",
          "name": "name",
          "type": "string"
        },
        {
          "internalType": "string",
          "name": "symbol",
          "type": "string"
        },
        {
          "internalType": "uint256",
          "name": "totalsupply",
          "type": "uint256"
        }
      ],
      "stateMutability": "nonpayable",
      "type": "constructor"
    },
    {
      "anonymous": false,
      "inputs": [
        {
          "indexed": true,
          "internalType": "address",
          "name": "owner",
          "type": "address"
        },
        {
          "indexed": true,
          "internalType": "address",
          "name": "spender",
          "type": "address"
        },
        {
          "indexed": false,
          "internalType": "uint256",
          "name": "value",
          "type": "uint256"
        }
      ],
      "name": "Approval",
      "type": "event"
    },
    {
      "anonymous": false,
      "inputs": [
        {
          "indexed": true,
          "internalType": "address",
          "name": "previousOwner",
          "type": "address"
        },
        {
          "indexed": true,
          "internalType": "address",
          "name": "newOwner",
          "type": "address"
        }
      ],
      "name": "OwnershipTransferred",
      "type": "event"
    },
    {
      "anonymous": false,
      "inputs": [
        {
          "indexed": true,
          "internalType": "address",
          "name": "from",
          "type": "address"
        },
        {
          "indexed": true,
          "internalType": "address",
          "name": "to",
          "type": "address"
        },
        {
          "indexed": false,
          "internalType": "uint256",
          "name": "value",
          "type": "uint256"
        }
      ],
      "name": "Transfer",
      "type": "event"
    },
    {
      "inputs": [
        {
          "internalType": "address",
          "name": "owner",
          "type": "address"
        },
        {
          "internalType": "address",
          "name": "spender",
          "type": "address"
        }
      ],
      "name": "allowance",
      "outputs": [
        {
          "internalType": "uint256",
          "name": "",
          "type": "uint256"
        }
      ],
      "stateMutability": "view",
      "type": "function"
    },
    {
      "inputs": [
        {
          "internalType": "address",
          "name": "spender",
          "type": "address"
        },
        {
          "internalType": "uint256",
          "name": "amount",
          "type": "uint256"
        }
      ],
      "name": "approve",
      "outputs": [
        {
          "internalType": "bool",
          "name": "",
          "type": "bool"
        }
      ],
      "stateMutability": "nonpayable",
      "type": "function"
    },
    {
      "inputs": [
        {
          "internalType": "address",
          "name": "account",
          "type": "address"
        }
      ],
      "name": "balanceOf",
      "outputs": [
        {
          "internalType": "uint256",
          "name": "",
          "type": "uint256"
        }
      ],
      "stateMutability": "view",
      "type": "function"
    },
    {
      "inputs": [
        {
          "internalType": "address",
          "name": "account",
          "type": "address"
        },
        {
          "internalType": "uint256",
          "name": "amount",
          "type": "uint256"
        }
      ],
      "name": "burn",
      "outputs": [],
      "stateMutability": "nonpayable",
      "type": "function"
    },
    {
      "inputs": [],
      "name": "decimals",
      "outputs": [
        {
          "internalType": "uint8",
          "name": "",
          "type": "uint8"
        }
      ],
      "stateMutability": "view",
      "type": "function"
    },
    {
      "inputs": [
        {
          "internalType": "address",
          "name": "spender",
          "type": "address"
        },
        {
          "internalType": "uint256",
          "name": "subtractedValue",
          "type": "uint256"
        }
      ],
      "name": "decreaseAllowance",
      "outputs": [
        {
          "internalType": "bool",
          "name": "",
          "type": "bool"
        }
      ],
      "stateMutability": "nonpayable",
      "type": "function"
    },
    {
      "inputs": [
        {
          "internalType": "address",
          "name": "spender",
          "type": "address"
        },
        {
          "internalType": "uint256",
          "name": "addedValue",
          "type": "uint256"
        }
      ],
      "name": "increaseAllowance",
      "outputs": [
        {
          "internalType": "bool",
          "name": "",
          "type": "bool"
        }
      ],
      "stateMutability": "nonpayable",
      "type": "function"
    },
    {
      "inputs": [
        {
          "internalType": "address",
          "name": "_votingAddress",
          "type": "address"
        }
      ],
      "name": "initVotingContract",
      "outputs": [],
      "stateMutability": "nonpayable",
      "type": "function"
    },
    {
      "inputs": [],
      "name": "name",
      "outputs": [
        {
          "internalType": "string",
          "name": "",
          "type": "string"
        }
      ],
      "stateMutability": "view",
      "type": "function"
    },
    {
      "inputs": [],
      "name": "owner",
      "outputs": [
        {
          "internalType": "address",
          "name": "",
          "type": "address"
        }
      ],
      "stateMutability": "view",
      "type": "function"
    },
    {
      "inputs": [],
      "name": "renounceOwnership",
      "outputs": [],
      "stateMutability": "nonpayable",
      "type": "function"
    },
    {
      "inputs": [],
      "name": "symbol",
      "outputs": [
        {
          "internalType": "string",
          "name": "",
          "type": "string"
        }
      ],
      "stateMutability": "view",
      "type": "function"
    },
    {
      "inputs": [],
      "name": "totalSupply",
      "outputs": [
        {
          "internalType": "uint256",
          "name": "",
          "type": "uint256"
        }
      ],
      "stateMutability": "view",
      "type": "function"
    },
    {
      "inputs": [
        {
          "internalType": "address",
          "name": "to",
          "type": "address"
        },
        {
          "internalType": "uint256",
          "name": "amount",
          "type": "uint256"
        }
      ],
      "name": "transfer",
      "outputs": [
        {
          "internalType": "bool",
          "name": "",
          "type": "bool"
        }
      ],
      "stateMutability": "nonpayable",
      "type": "function"
    },
    {
      "inputs": [
        {
          "internalType": "address",
          "name": "from",
          "type": "address"
        },
        {
          "internalType": "address",
          "name": "to",
          "type": "address"
        },
        {
          "internalType": "uint256",
          "name": "amount",
          "type": "uint256"
        }
      ],
      "name": "transferFrom",
      "outputs": [
        {
          "internalType": "bool",
          "name": "",
          "type": "bool"
        }
      ],
      "stateMutability": "nonpayable",
      "type": "function"
    },
    {
      "inputs": [
        {
          "internalType": "address",
          "name": "newOwner",
          "type": "address"
        }
      ],
      "name": "transferOwnership",
      "outputs": [],
      "stateMutability": "nonpayable",
      "type": "function"
    }
  ],
  "bytecode": "0x60806040523480156200001157600080fd5b506040516200231638038062002316833981810160405281019062000037919062000494565b8282620000596200004d6200010b60201b60201c565b6200011360201b60201c565b8160049080519060200190620000719291906200035b565b5080600590805190602001906200008a9291906200035b565b50505080600781905550620000a833600754620001d760201b60201c565b600754600860003373ffffffffffffffffffffffffffffffffffffffff1673ffffffffffffffffffffffffffffffffffffffff1681526020019081526020016000206000828254620000fb919062000603565b92505081905550505050620007ed565b600033905090565b60008060009054906101000a900473ffffffffffffffffffffffffffffffffffffffff169050816000806101000a81548173ffffffffffffffffffffffffffffffffffffffff021916908373ffffffffffffffffffffffffffffffffffffffff1602179055508173ffffffffffffffffffffffffffffffffffffffff168173ffffffffffffffffffffffffffffffffffffffff167f8be0079c531659141344cd1fd0a4f28419497f9722a3daafe3b4186f6b6457e060405160405180910390a35050565b600073ffffffffffffffffffffffffffffffffffffffff168273ffffffffffffffffffffffffffffffffffffffff1614156200024a576040517f08c379a0000000000000000000000000000000000000000000000000000000008152600401620002419062000554565b60405180910390fd5b6200025e600083836200035160201b60201c565b806003600082825462000272919062000603565b9250508190555080600160008473ffffffffffffffffffffffffffffffffffffffff1673ffffffffffffffffffffffffffffffffffffffff1681526020019081526020016000206000828254620002ca919062000603565b925050819055508173ffffffffffffffffffffffffffffffffffffffff16600073ffffffffffffffffffffffffffffffffffffffff167fddf252ad1be2c89b69c2b068fc378daa952ba7f163c4a11628f55a4df523b3ef8360405162000331919062000576565b60405180910390a36200034d600083836200035660201b60201c565b5050565b505050565b505050565b8280546200036990620006a0565b90600052602060002090601f0160209004810192826200038d5760008555620003d9565b82601f10620003a857805160ff1916838001178555620003d9565b82800160010185558215620003d9579182015b82811115620003d8578251825591602001919060010190620003bb565b5b509050620003e89190620003ec565b5090565b5b8082111562000407576000816000905550600101620003ed565b5090565b6000620004226200041c84620005bc565b62000593565b9050828152602081018484840111156200043b57600080fd5b620004488482856200066a565b509392505050565b600082601f8301126200046257600080fd5b8151620004748482602086016200040b565b91505092915050565b6000815190506200048e81620007d3565b92915050565b600080600060608486031215620004aa57600080fd5b600084015167ffffffffffffffff811115620004c557600080fd5b620004d38682870162000450565b935050602084015167ffffffffffffffff811115620004f157600080fd5b620004ff8682870162000450565b925050604062000512868287016200047d565b9150509250925092565b60006200052b601f83620005f2565b91506200053882620007aa565b602082019050919050565b6200054e8162000660565b82525050565b600060208201905081810360008301526200056f816200051c565b9050919050565b60006020820190506200058d600083018462000543565b92915050565b60006200059f620005b2565b9050620005ad8282620006d6565b919050565b6000604051905090565b600067ffffffffffffffff821115620005da57620005d96200076a565b5b620005e58262000799565b9050602081019050919050565b600082825260208201905092915050565b6000620006108262000660565b91506200061d8362000660565b9250827fffffffffffffffffffffffffffffffffffffffffffffffffffffffffffffffff038211156200065557620006546200070c565b5b828201905092915050565b6000819050919050565b60005b838110156200068a5780820151818401526020810190506200066d565b838111156200069a576000848401525b50505050565b60006002820490506001821680620006b957607f821691505b60208210811415620006d057620006cf6200073b565b5b50919050565b620006e18262000799565b810181811067ffffffffffffffff821117156200070357620007026200076a565b5b80604052505050565b7f4e487b7100000000000000000000000000000000000000000000000000000000600052601160045260246000fd5b7f4e487b7100000000000000000000000000000000000000000000000000000000600052602260045260246000fd5b7f4e487b7100000000000000000000000000000000000000000000000000000000600052604160045260246000fd5b6000601f19601f8301169050919050565b7f45524332303a206d696e7420746f20746865207a65726f206164647265737300600082015250565b620007de8162000660565b8114620007ea57600080fd5b50565b611b1980620007fd6000396000f3fe608060405234801561001057600080fd5b50600436106101005760003560e01c8063715018a611610097578063a457c2d711610066578063a457c2d71461029d578063a9059cbb146102cd578063dd62ed3e146102fd578063f2fde38b1461032d57610100565b8063715018a61461023b5780638da5cb5b1461024557806395d89b41146102635780639dc29fac1461028157610100565b8063313ce567116100d3578063313ce567146101a157806339509351146101bf57806341d03686146101ef57806370a082311461020b57610100565b806306fdde0314610105578063095ea7b31461012357806318160ddd1461015357806323b872dd14610171575b600080fd5b61010d610349565b60405161011a9190611415565b60405180910390f35b61013d600480360381019061013891906111ad565b6103db565b60405161014a91906113fa565b60405180910390f35b61015b6103fe565b6040516101689190611597565b60405180910390f35b61018b6004803603810190610186919061115e565b610408565b60405161019891906113fa565b60405180910390f35b6101a9610437565b6040516101b691906115b2565b60405180910390f35b6101d960048036038101906101d491906111ad565b610440565b6040516101e691906113fa565b60405180910390f35b610209600480360381019061020491906110f9565b610477565b005b610225600480360381019061022091906110f9565b6104c3565b6040516102329190611597565b60405180910390f35b61024361050c565b005b61024d610520565b60405161025a91906113df565b60405180910390f35b61026b610549565b6040516102789190611415565b60405180910390f35b61029b600480360381019061029691906111ad565b6105db565b005b6102b760048036038101906102b291906111ad565b610666565b6040516102c491906113fa565b60405180910390f35b6102e760048036038101906102e291906111ad565b6106dd565b6040516102f491906113fa565b60405180910390f35b61031760048036038101906103129190611122565b610700565b6040516103249190611597565b60405180910390f35b610347600480360381019061034291906110f9565b610787565b005b606060048054610358906116fb565b80601f0160208091040260200160405190810160405280929190818152602001828054610384906116fb565b80156103d15780601f106103a6576101008083540402835291602001916103d1565b820191906000526020600020905b8154815290600101906020018083116103b457829003601f168201915b5050505050905090565b6000806103e661080b565b90506103f3818585610813565b600191505092915050565b6000600754905090565b60008061041361080b565b90506104208582856109de565b61042b858585610a6a565b60019150509392505050565b60006012905090565b60008061044b610520565b905061046c81858561045d8589610700565b61046791906115e9565b610813565b600191505092915050565b61047f610b26565b80600660006101000a81548173ffffffffffffffffffffffffffffffffffffffff021916908373ffffffffffffffffffffffffffffffffffffffff16021790555050565b6000600860008373ffffffffffffffffffffffffffffffffffffffff1673ffffffffffffffffffffffffffffffffffffffff168152602001908152602001600020549050919050565b610514610b26565b61051e6000610ba4565b565b60008060009054906101000a900473ffffffffffffffffffffffffffffffffffffffff16905090565b606060058054610558906116fb565b80601f0160208091040260200160405190810160405280929190818152602001828054610584906116fb565b80156105d15780601f106105a6576101008083540402835291602001916105d1565b820191906000526020600020905b8154815290600101906020018083116105b457829003601f168201915b5050505050905090565b600660009054906101000a90505080600860008473ffffffffffffffffffffffffffffffffffffffff1673ffffffffffffffffffffffffffffffffffffffff1681526020019081526020016000206000828254610638919061163f565b925050819055508060076000828254610651919061163f565b925050819055506106628282610c68565b5050565b60008061067161080b565b9050600061067f8286610700565b9050838110156106c4576040517f08c379a00000000000000000000000000000000000000000000000000000000081526004016106bb90611577565b60405180910390fd5b6106d18286868403610813565b60019250505092915050565b6000806106e861080b565b90506106f5818585610a6a565b600191505092915050565b6000600260008473ffffffffffffffffffffffffffffffffffffffff1673ffffffffffffffffffffffffffffffffffffffff16815260200190815260200160002060008373ffffffffffffffffffffffffffffffffffffffff1673ffffffffffffffffffffffffffffffffffffffff16815260200190815260200160002054905092915050565b61078f610b26565b600073ffffffffffffffffffffffffffffffffffffffff168173ffffffffffffffffffffffffffffffffffffffff1614156107ff576040517f08c379a00000000000000000000000000000000000000000000000000000000081526004016107f690611477565b60405180910390fd5b61080881610ba4565b50565b600033905090565b600073ffffffffffffffffffffffffffffffffffffffff168373ffffffffffffffffffffffffffffffffffffffff161415610883576040517f08c379a000000000000000000000000000000000000000000000000000000000815260040161087a90611557565b60405180910390fd5b600073ffffffffffffffffffffffffffffffffffffffff168273ffffffffffffffffffffffffffffffffffffffff1614156108f3576040517f08c379a00000000000000000000000000000000000000000000000000000000081526004016108ea90611497565b60405180910390fd5b80600260008573ffffffffffffffffffffffffffffffffffffffff1673ffffffffffffffffffffffffffffffffffffffff16815260200190815260200160002060008473ffffffffffffffffffffffffffffffffffffffff1673ffffffffffffffffffffffffffffffffffffffff168152602001908152602001600020819055508173ffffffffffffffffffffffffffffffffffffffff168373ffffffffffffffffffffffffffffffffffffffff167f8c5be1e5ebec7d5bd14f71427d1e84f3dd0314c0f7b2291e5b200ac8c7c3b925836040516109d19190611597565b60405180910390a3505050565b60006109ea8484610700565b90507fffffffffffffffffffffffffffffffffffffffffffffffffffffffffffffffff8114610a645781811015610a56576040517f08c379a0000000000000000000000000000000000000000000000000000000008152600401610a4d906114b7565b60405180910390fd5b610a638484848403610813565b5b50505050565b80600860008573ffffffffffffffffffffffffffffffffffffffff1673ffffffffffffffffffffffffffffffffffffffff1681526020019081526020016000206000828254610ab9919061163f565b9250508190555080600860008473ffffffffffffffffffffffffffffffffffffffff1673ffffffffffffffffffffffffffffffffffffffff1681526020019081526020016000206000828254610b0f91906115e9565b92505081905550610b21838383610e41565b505050565b610b2e61080b565b73ffffffffffffffffffffffffffffffffffffffff16610b4c610520565b73ffffffffffffffffffffffffffffffffffffffff1614610ba2576040517f08c379a0000000000000000000000000000000000000000000000000000000008152600401610b99906114f7565b60405180910390fd5b565b60008060009054906101000a900473ffffffffffffffffffffffffffffffffffffffff169050816000806101000a81548173ffffffffffffffffffffffffffffffffffffffff021916908373ffffffffffffffffffffffffffffffffffffffff1602179055508173ffffffffffffffffffffffffffffffffffffffff168173ffffffffffffffffffffffffffffffffffffffff167f8be0079c531659141344cd1fd0a4f28419497f9722a3daafe3b4186f6b6457e060405160405180910390a35050565b600073ffffffffffffffffffffffffffffffffffffffff168273ffffffffffffffffffffffffffffffffffffffff161415610cd8576040517f08c379a0000000000000000000000000000000000000000000000000000000008152600401610ccf90611517565b60405180910390fd5b610ce4826000836110c5565b6000600160008473ffffffffffffffffffffffffffffffffffffffff1673ffffffffffffffffffffffffffffffffffffffff16815260200190815260200160002054905081811015610d6b576040517f08c379a0000000000000000000000000000000000000000000000000000000008152600401610d6290611457565b60405180910390fd5b818103600160008573ffffffffffffffffffffffffffffffffffffffff1673ffffffffffffffffffffffffffffffffffffffff168152602001908152602001600020819055508160036000828254610dc3919061163f565b92505081905550600073ffffffffffffffffffffffffffffffffffffffff168373ffffffffffffffffffffffffffffffffffffffff167fddf252ad1be2c89b69c2b068fc378daa952ba7f163c4a11628f55a4df523b3ef84604051610e289190611597565b60405180910390a3610e3c836000846110ca565b505050565b600073ffffffffffffffffffffffffffffffffffffffff168373ffffffffffffffffffffffffffffffffffffffff161415610eb1576040517f08c379a0000000000000000000000000000000000000000000000000000000008152600401610ea890611537565b60405180910390fd5b600073ffffffffffffffffffffffffffffffffffffffff168273ffffffffffffffffffffffffffffffffffffffff161415610f21576040517f08c379a0000000000000000000000000000000000000000000000000000000008152600401610f1890611437565b60405180910390fd5b610f2c8383836110c5565b6000600160008573ffffffffffffffffffffffffffffffffffffffff1673ffffffffffffffffffffffffffffffffffffffff16815260200190815260200160002054905081811015610fb3576040517f08c379a0000000000000000000000000000000000000000000000000000000008152600401610faa906114d7565b60405180910390fd5b818103600160008673ffffffffffffffffffffffffffffffffffffffff1673ffffffffffffffffffffffffffffffffffffffff1681526020019081526020016000208190555081600160008573ffffffffffffffffffffffffffffffffffffffff1673ffffffffffffffffffffffffffffffffffffffff168152602001908152602001600020600082825461104891906115e9565b925050819055508273ffffffffffffffffffffffffffffffffffffffff168473ffffffffffffffffffffffffffffffffffffffff167fddf252ad1be2c89b69c2b068fc378daa952ba7f163c4a11628f55a4df523b3ef846040516110ac9190611597565b60405180910390a36110bf8484846110ca565b50505050565b505050565b505050565b6000813590506110de81611ab5565b92915050565b6000813590506110f381611acc565b92915050565b60006020828403121561110b57600080fd5b6000611119848285016110cf565b91505092915050565b6000806040838503121561113557600080fd5b6000611143858286016110cf565b9250506020611154858286016110cf565b9150509250929050565b60008060006060848603121561117357600080fd5b6000611181868287016110cf565b9350506020611192868287016110cf565b92505060406111a3868287016110e4565b9150509250925092565b600080604083850312156111c057600080fd5b60006111ce858286016110cf565b92505060206111df858286016110e4565b9150509250929050565b6111f281611673565b82525050565b61120181611685565b82525050565b6000611212826115cd565b61121c81856115d8565b935061122c8185602086016116c8565b6112358161178b565b840191505092915050565b600061124d6023836115d8565b91506112588261179c565b604082019050919050565b60006112706022836115d8565b915061127b826117eb565b604082019050919050565b60006112936026836115d8565b915061129e8261183a565b604082019050919050565b60006112b66022836115d8565b91506112c182611889565b604082019050919050565b60006112d9601d836115d8565b91506112e4826118d8565b602082019050919050565b60006112fc6026836115d8565b915061130782611901565b604082019050919050565b600061131f6020836115d8565b915061132a82611950565b602082019050919050565b60006113426021836115d8565b915061134d82611979565b604082019050919050565b60006113656025836115d8565b9150611370826119c8565b604082019050919050565b60006113886024836115d8565b915061139382611a17565b604082019050919050565b60006113ab6025836115d8565b91506113b682611a66565b604082019050919050565b6113ca816116b1565b82525050565b6113d9816116bb565b82525050565b60006020820190506113f460008301846111e9565b92915050565b600060208201905061140f60008301846111f8565b92915050565b6000602082019050818103600083015261142f8184611207565b905092915050565b6000602082019050818103600083015261145081611240565b9050919050565b6000602082019050818103600083015261147081611263565b9050919050565b6000602082019050818103600083015261149081611286565b9050919050565b600060208201905081810360008301526114b0816112a9565b9050919050565b600060208201905081810360008301526114d0816112cc565b9050919050565b600060208201905081810360008301526114f0816112ef565b9050919050565b6000602082019050818103600083015261151081611312565b9050919050565b6000602082019050818103600083015261153081611335565b9050919050565b6000602082019050818103600083015261155081611358565b9050919050565b600060208201905081810360008301526115708161137b565b9050919050565b600060208201905081810360008301526115908161139e565b9050919050565b60006020820190506115ac60008301846113c1565b92915050565b60006020820190506115c760008301846113d0565b92915050565b600081519050919050565b600082825260208201905092915050565b60006115f4826116b1565b91506115ff836116b1565b9250827fffffffffffffffffffffffffffffffffffffffffffffffffffffffffffffffff038211156116345761163361172d565b5b828201905092915050565b600061164a826116b1565b9150611655836116b1565b9250828210156116685761166761172d565b5b828203905092915050565b600061167e82611691565b9050919050565b60008115159050919050565b600073ffffffffffffffffffffffffffffffffffffffff82169050919050565b6000819050919050565b600060ff82169050919050565b60005b838110156116e65780820151818401526020810190506116cb565b838111156116f5576000848401525b50505050565b6000600282049050600182168061171357607f821691505b602082108114156117275761172661175c565b5b50919050565b7f4e487b7100000000000000000000000000000000000000000000000000000000600052601160045260246000fd5b7f4e487b7100000000000000000000000000000000000000000000000000000000600052602260045260246000fd5b6000601f19601f8301169050919050565b7f45524332303a207472616e7366657220746f20746865207a65726f206164647260008201527f6573730000000000000000000000000000000000000000000000000000000000602082015250565b7f45524332303a206275726e20616d6f756e7420657863656564732062616c616e60008201527f6365000000000000000000000000000000000000000000000000000000000000602082015250565b7f4f776e61626c653a206e6577206f776e657220697320746865207a65726f206160008201527f6464726573730000000000000000000000000000000000000000000000000000602082015250565b7f45524332303a20617070726f766520746f20746865207a65726f20616464726560008201527f7373000000000000000000000000000000000000000000000000000000000000602082015250565b7f45524332303a20696e73756666696369656e7420616c6c6f77616e6365000000600082015250565b7f45524332303a207472616e7366657220616d6f756e742065786365656473206260008201527f616c616e63650000000000000000000000000000000000000000000000000000602082015250565b7f4f776e61626c653a2063616c6c6572206973206e6f7420746865206f776e6572600082015250565b7f45524332303a206275726e2066726f6d20746865207a65726f2061646472657360008201527f7300000000000000000000000000000000000000000000000000000000000000602082015250565b7f45524332303a207472616e736665722066726f6d20746865207a65726f20616460008201527f6472657373000000000000000000000000000000000000000000000000000000602082015250565b7f45524332303a20617070726f76652066726f6d20746865207a65726f2061646460008201527f7265737300000000000000000000000000000000000000000000000000000000602082015250565b7f45524332303a2064656372656173656420616c6c6f77616e63652062656c6f7760008201527f207a65726f000000000000000000000000000000000000000000000000000000602082015250565b611abe81611673565b8114611ac957600080fd5b50565b611ad5816116b1565b8114611ae057600080fd5b5056fea264697066735822122061357f629384732f29ee25207074ad7fdc2fd0b6142c48233be59cf963b32d5e64736f6c63430008040033",
  "linkReferences": {},
  "deployedLinkReferences": {}
}